{
  "_format": "hh-sol-artifact-1",
  "contractName": "OfferContract",
  "sourceName": "contracts/OfferContract.sol",
  "abi": [
    {
      "inputs": [
        {
          "internalType": "address",
          "name": "_buyer",
          "type": "address"
        },
        {
          "internalType": "address",
          "name": "_farmer",
          "type": "address"
        },
        {
          "internalType": "uint256",
          "name": "_quantity",
          "type": "uint256"
        },
        {
          "internalType": "uint256",
          "name": "_pricePerUnit",
          "type": "uint256"
        }
      ],
      "stateMutability": "payable",
      "type": "constructor"
    },
    {
      "anonymous": false,
      "inputs": [
        {
          "indexed": true,
          "internalType": "address",
          "name": "buyer",
          "type": "address"
        },
        {
          "indexed": true,
          "internalType": "address",
          "name": "farmer",
          "type": "address"
        },
        {
          "indexed": false,
          "internalType": "uint256",
          "name": "totalPrice",
          "type": "uint256"
        }
      ],
      "name": "ContractCreated",
      "type": "event"
    },
    {
      "anonymous": false,
      "inputs": [
        {
          "indexed": true,
          "internalType": "address",
          "name": "buyer",
          "type": "address"
        }
      ],
      "name": "DeliveryConfirmed",
      "type": "event"
    },
    {
      "anonymous": false,
      "inputs": [
        {
          "indexed": true,
          "internalType": "address",
          "name": "buyer",
          "type": "address"
        }
      ],
      "name": "DeliveryMarked",
      "type": "event"
    },
    {
      "inputs": [],
      "name": "buyer",
      "outputs": [
        {
          "internalType": "address",
          "name": "",
          "type": "address"
        }
      ],
      "stateMutability": "view",
      "type": "function"
    },
    {
      "inputs": [],
      "name": "confirmDelivery",
      "outputs": [],
      "stateMutability": "nonpayable",
      "type": "function"
    },
    {
      "inputs": [],
      "name": "farmer",
      "outputs": [
        {
          "internalType": "address",
          "name": "",
          "type": "address"
        }
      ],
      "stateMutability": "view",
      "type": "function"
    },
    {
      "inputs": [],
      "name": "isConfirmed",
      "outputs": [
        {
          "internalType": "bool",
          "name": "",
          "type": "bool"
        }
      ],
      "stateMutability": "view",
      "type": "function"
    },
    {
      "inputs": [],
      "name": "isDelivered",
      "outputs": [
        {
          "internalType": "bool",
          "name": "",
          "type": "bool"
        }
      ],
      "stateMutability": "view",
      "type": "function"
    },
    {
      "inputs": [],
      "name": "isPaid",
      "outputs": [
        {
          "internalType": "bool",
          "name": "",
          "type": "bool"
        }
      ],
      "stateMutability": "view",
      "type": "function"
    },
    {
      "inputs": [],
      "name": "markDelivered",
      "outputs": [],
      "stateMutability": "nonpayable",
      "type": "function"
    },
    {
      "inputs": [],
      "name": "pricePerUnit",
      "outputs": [
        {
          "internalType": "uint256",
          "name": "",
          "type": "uint256"
        }
      ],
      "stateMutability": "view",
      "type": "function"
    },
    {
      "inputs": [],
      "name": "quantity",
      "outputs": [
        {
          "internalType": "uint256",
          "name": "",
          "type": "uint256"
        }
      ],
      "stateMutability": "view",
      "type": "function"
    },
    {
      "inputs": [],
      "name": "totalPrice",
      "outputs": [
        {
          "internalType": "uint256",
          "name": "",
          "type": "uint256"
        }
      ],
      "stateMutability": "view",
      "type": "function"
    }
  ],
  "bytecode": "0x6080604052604051610cb0380380610cb083398181016040528101906100259190610343565b836000806101000a81548173ffffffffffffffffffffffffffffffffffffffff021916908373ffffffffffffffffffffffffffffffffffffffff16021790555082600160006101000a81548173ffffffffffffffffffffffffffffffffffffffff021916908373ffffffffffffffffffffffffffffffffffffffff16021790555081600281905550806003819055506003546002546100c491906103d9565b600481905550600454341461010e576040517f08c379a00000000000000000000000000000000000000000000000000000000081526004016101059061049e565b60405180910390fd5b6001600560006101000a81548160ff0219169083151502179055506000600160009054906101000a900473ffffffffffffffffffffffffffffffffffffffff1673ffffffffffffffffffffffffffffffffffffffff1634604051610171906104ef565b60006040518083038185875af1925050503d80600081146101ae576040519150601f19603f3d011682016040523d82523d6000602084013e6101b3565b606091505b50509050806101f7576040517f08c379a00000000000000000000000000000000000000000000000000000000081526004016101ee90610550565b60405180910390fd5b600160009054906101000a900473ffffffffffffffffffffffffffffffffffffffff1673ffffffffffffffffffffffffffffffffffffffff1660008054906101000a900473ffffffffffffffffffffffffffffffffffffffff1673ffffffffffffffffffffffffffffffffffffffff167f77594c7fa34419efb1eaaabf29a576f56c88a9b7877b9c55a53c74da44ad609e600454604051610298919061057f565b60405180910390a3505050505061059a565b600080fd5b600073ffffffffffffffffffffffffffffffffffffffff82169050919050565b60006102da826102af565b9050919050565b6102ea816102cf565b81146102f557600080fd5b50565b600081519050610307816102e1565b92915050565b6000819050919050565b6103208161030d565b811461032b57600080fd5b50565b60008151905061033d81610317565b92915050565b6000806000806080858703121561035d5761035c6102aa565b5b600061036b878288016102f8565b945050602061037c878288016102f8565b935050604061038d8782880161032e565b925050606061039e8782880161032e565b91505092959194509250565b7f4e487b7100000000000000000000000000000000000000000000000000000000600052601160045260246000fd5b60006103e48261030d565b91506103ef8361030d565b92508282026103fd8161030d565b91508282048414831517610414576104136103aa565b5b5092915050565b600082825260208201905092915050565b7f496e636f7272656374204554482073656e7420666f7220746f74616c2070726960008201527f6365000000000000000000000000000000000000000000000000000000000000602082015250565b600061048860228361041b565b91506104938261042c565b604082019050919050565b600060208201905081810360008301526104b78161047b565b9050919050565b600081905092915050565b50565b60006104d96000836104be565b91506104e4826104c9565b600082019050919050565b60006104fa826104cc565b9150819050919050565b7f5061796d656e7420746f206661726d6572206661696c65640000000000000000600082015250565b600061053a60188361041b565b915061054582610504565b602082019050919050565b600060208201905081810360008301526105698161052d565b9050919050565b6105798161030d565b82525050565b60006020820190506105946000830184610570565b92915050565b610707806105a96000396000f3fe608060405234801561001057600080fd5b506004361061009e5760003560e01c8063765f744c11610066578063765f744c14610111578063a79a3cee1461012f578063ab0d92dd1461014d578063d811fcf01461016b578063e66825c3146101895761009e565b806317fc45e2146100a3578063209ebc08146100c1578063597825d0146100df5780635e10177b146100e95780637150d8ae146100f3575b600080fd5b6100ab6101a7565b6040516100b891906104cf565b60405180910390f35b6100c96101ad565b6040516100d69190610505565b60405180910390f35b6100e76101c0565b005b6100f16102fd565b005b6100fb61043a565b6040516101089190610561565b60405180910390f35b61011961045e565b6040516101269190610505565b60405180910390f35b610137610471565b6040516101449190610505565b60405180910390f35b610155610484565b60405161016291906104cf565b60405180910390f35b61017361048a565b6040516101809190610561565b60405180910390f35b6101916104b0565b60405161019e91906104cf565b60405180910390f35b60025481565b600560009054906101000a900460ff1681565b60008054906101000a900473ffffffffffffffffffffffffffffffffffffffff1673ffffffffffffffffffffffffffffffffffffffff163373ffffffffffffffffffffffffffffffffffffffff161461024e576040517f08c379a0000000000000000000000000000000000000000000000000000000008152600401610245906105d9565b60405180910390fd5b600560009054906101000a900460ff1661029d576040517f08c379a000000000000000000000000000000000000000000000000000000000815260040161029490610645565b60405180910390fd5b6001600560016101000a81548160ff0219169083151502179055503373ffffffffffffffffffffffffffffffffffffffff167f31fd4a5731e1e0d14ee63762ef985aba8c4bd90f121f6fd7388c479caa4499c360405160405180910390a2565b60008054906101000a900473ffffffffffffffffffffffffffffffffffffffff1673ffffffffffffffffffffffffffffffffffffffff163373ffffffffffffffffffffffffffffffffffffffff161461038b576040517f08c379a0000000000000000000000000000000000000000000000000000000008152600401610382906105d9565b60405180910390fd5b600560019054906101000a900460ff166103da576040517f08c379a00000000000000000000000000000000000000000000000000000000081526004016103d1906106b1565b60405180910390fd5b6001600560026101000a81548160ff0219169083151502179055503373ffffffffffffffffffffffffffffffffffffffff167f7fe25e02f602b412aee7591e6643616f1f1259a4ca6a3ee3387fef583badcd0e60405160405180910390a2565b60008054906101000a900473ffffffffffffffffffffffffffffffffffffffff1681565b600560019054906101000a900460ff1681565b600560029054906101000a900460ff1681565b60045481565b600160009054906101000a900473ffffffffffffffffffffffffffffffffffffffff1681565b60035481565b6000819050919050565b6104c9816104b6565b82525050565b60006020820190506104e460008301846104c0565b92915050565b60008115159050919050565b6104ff816104ea565b82525050565b600060208201905061051a60008301846104f6565b92915050565b600073ffffffffffffffffffffffffffffffffffffffff82169050919050565b600061054b82610520565b9050919050565b61055b81610540565b82525050565b60006020820190506105766000830184610552565b92915050565b600082825260208201905092915050565b7f4f6e6c792062757965722063616e2063616c6c20746869730000000000000000600082015250565b60006105c360188361057c565b91506105ce8261058d565b602082019050919050565b600060208201905081810360008301526105f2816105b6565b9050919050565b7f5061796d656e74206e6f7420636f6d706c657465640000000000000000000000600082015250565b600061062f60158361057c565b915061063a826105f9565b602082019050919050565b6000602082019050818103600083015261065e81610622565b9050919050565b7f44656c6976657279206e6f74206d61726b656420796574000000000000000000600082015250565b600061069b60178361057c565b91506106a682610665565b602082019050919050565b600060208201905081810360008301526106ca8161068e565b905091905056fea26469706673582212200e0b230618204a8bee1b95edc6b12905426a1bd8ad3d93ff456ecdc7473628db64736f6c634300081c0033",
  "linkReferences": {},
  "deployedLinkReferences": {}
}